{
  "address": "0xFe3e1BD09C695F330932B6243D3A4fe1a000F0B9",
  "abi": [
    {
      "inputs": [
        {
          "internalType": "address",
          "name": "_delegationRegistry",
          "type": "address"
        },
        {
          "internalType": "address",
          "name": "_cacaoVault",
          "type": "address"
        },
        {
          "internalType": "uint256",
          "name": "_fee",
          "type": "uint256"
        }
      ],
      "stateMutability": "nonpayable",
      "type": "constructor"
    },
    {
      "inputs": [],
      "name": "Cacao__NotEnoughFunds",
      "type": "error"
    },
    {
      "inputs": [],
      "name": "Cacao__NotOwner",
      "type": "error"
    },
    {
      "inputs": [],
      "name": "Cacao__OfferExists",
      "type": "error"
    },
    {
      "inputs": [],
      "name": "Cacao__OfferIsActive",
      "type": "error"
    },
    {
      "inputs": [],
      "name": "Cacao__OfferNotAvailable",
      "type": "error"
    },
    {
      "inputs": [],
      "name": "Cacao__TransferFailed",
      "type": "error"
    },
    {
      "inputs": [],
      "name": "Cacao__WrongAddress",
      "type": "error"
    },
    {
      "inputs": [],
      "name": "Cacao__WrongInput",
      "type": "error"
    },
    {
      "anonymous": false,
      "inputs": [
        {
          "indexed": false,
          "internalType": "uint256",
          "name": "id",
          "type": "uint256"
        },
        {
          "indexed": false,
          "internalType": "address",
          "name": "vault",
          "type": "address"
        },
        {
          "indexed": false,
          "internalType": "address",
          "name": "delegate",
          "type": "address"
        },
        {
          "indexed": false,
          "internalType": "address",
          "name": "collection",
          "type": "address"
        },
        {
          "indexed": false,
          "internalType": "uint256",
          "name": "tokenId",
          "type": "uint256"
        },
        {
          "indexed": false,
          "internalType": "bool",
          "name": "value",
          "type": "bool"
        }
      ],
      "name": "OfferAccepted",
      "type": "event"
    },
    {
      "anonymous": false,
      "inputs": [
        {
          "indexed": false,
          "internalType": "address",
          "name": "collection",
          "type": "address"
        },
        {
          "indexed": false,
          "internalType": "uint256",
          "name": "tokenId",
          "type": "uint256"
        },
        {
          "indexed": false,
          "internalType": "uint256",
          "name": "offerId",
          "type": "uint256"
        }
      ],
      "name": "OfferCancelled",
      "type": "event"
    },
    {
      "anonymous": false,
      "inputs": [
        {
          "indexed": false,
          "internalType": "uint256",
          "name": "id",
          "type": "uint256"
        },
        {
          "indexed": false,
          "internalType": "uint256",
          "name": "price",
          "type": "uint256"
        },
        {
          "indexed": false,
          "internalType": "uint256",
          "name": "tokenId",
          "type": "uint256"
        },
        {
          "indexed": false,
          "internalType": "address",
          "name": "collection",
          "type": "address"
        },
        {
          "indexed": false,
          "internalType": "uint256",
          "name": "duration",
          "type": "uint256"
        },
        {
          "indexed": false,
          "internalType": "address",
          "name": "lender",
          "type": "address"
        }
      ],
      "name": "OfferCreated",
      "type": "event"
    },
    {
      "anonymous": false,
      "inputs": [
        {
          "indexed": true,
          "internalType": "address",
          "name": "previousOwner",
          "type": "address"
        },
        {
          "indexed": true,
          "internalType": "address",
          "name": "newOwner",
          "type": "address"
        }
      ],
      "name": "OwnershipTransferred",
      "type": "event"
    },
    {
      "inputs": [
        {
          "internalType": "address",
          "name": "_collection",
          "type": "address"
        },
        {
          "internalType": "uint256",
          "name": "_tokenId",
          "type": "uint256"
        },
        {
          "internalType": "uint256",
          "name": "_offerId",
          "type": "uint256"
        }
      ],
      "name": "acceptOffer",
      "outputs": [],
      "stateMutability": "payable",
      "type": "function"
    },
    {
      "inputs": [],
      "name": "cacaoVault",
      "outputs": [
        {
          "internalType": "address",
          "name": "",
          "type": "address"
        }
      ],
      "stateMutability": "view",
      "type": "function"
    },
    {
      "inputs": [
        {
          "internalType": "address",
          "name": "_collection",
          "type": "address"
        },
        {
          "internalType": "uint256",
          "name": "_tokenId",
          "type": "uint256"
        },
        {
          "internalType": "uint256",
          "name": "_offerId",
          "type": "uint256"
        }
      ],
      "name": "cancelOffer",
      "outputs": [],
      "stateMutability": "nonpayable",
      "type": "function"
    },
    {
      "inputs": [
        {
          "internalType": "address",
          "name": "_delegate",
          "type": "address"
        },
        {
          "internalType": "address",
          "name": "_vault",
          "type": "address"
        },
        {
          "internalType": "address",
          "name": "_contract",
          "type": "address"
        },
        {
          "internalType": "uint256",
          "name": "tokenId",
          "type": "uint256"
        }
      ],
      "name": "checkDelegateForToken",
      "outputs": [
        {
          "internalType": "bool",
          "name": "result",
          "type": "bool"
        }
      ],
      "stateMutability": "view",
      "type": "function"
    },
    {
      "inputs": [
        {
          "internalType": "uint256",
          "name": "_price",
          "type": "uint256"
        },
        {
          "internalType": "uint256",
          "name": "_tokenId",
          "type": "uint256"
        },
        {
          "internalType": "address",
          "name": "_collection",
          "type": "address"
        },
        {
          "internalType": "uint256",
          "name": "_duration",
          "type": "uint256"
        }
      ],
      "name": "createOffer",
      "outputs": [],
      "stateMutability": "nonpayable",
      "type": "function"
    },
    {
      "inputs": [],
      "name": "delegationRegistry",
      "outputs": [
        {
          "internalType": "address",
          "name": "",
          "type": "address"
        }
      ],
      "stateMutability": "view",
      "type": "function"
    },
    {
      "inputs": [],
      "name": "fee",
      "outputs": [
        {
          "internalType": "uint256",
          "name": "",
          "type": "uint256"
        }
      ],
      "stateMutability": "view",
      "type": "function"
    },
    {
      "inputs": [],
      "name": "getAllOffers",
      "outputs": [
        {
          "components": [
            {
              "internalType": "uint256",
              "name": "offerId",
              "type": "uint256"
            },
            {
              "internalType": "uint256",
              "name": "tokenId",
              "type": "uint256"
            },
            {
              "internalType": "uint256",
              "name": "price",
              "type": "uint256"
            },
            {
              "internalType": "uint256",
              "name": "startTime",
              "type": "uint256"
            },
            {
              "internalType": "uint256",
              "name": "duration",
              "type": "uint256"
            },
            {
              "internalType": "address",
              "name": "collection",
              "type": "address"
            },
            {
              "internalType": "address",
              "name": "lender",
              "type": "address"
            },
            {
              "internalType": "address",
              "name": "borrower",
              "type": "address"
            },
            {
              "internalType": "enum Cacao.OfferStatus",
              "name": "status",
              "type": "uint8"
            }
          ],
          "internalType": "struct Cacao.Offer[]",
          "name": "",
          "type": "tuple[]"
        }
      ],
      "stateMutability": "view",
      "type": "function"
    },
    {
      "inputs": [
        {
          "internalType": "address",
          "name": "lender",
          "type": "address"
        }
      ],
      "name": "getOfferByLender",
      "outputs": [
        {
          "components": [
            {
              "internalType": "uint256",
              "name": "offerId",
              "type": "uint256"
            },
            {
              "internalType": "uint256",
              "name": "tokenId",
              "type": "uint256"
            },
            {
              "internalType": "uint256",
              "name": "price",
              "type": "uint256"
            },
            {
              "internalType": "uint256",
              "name": "startTime",
              "type": "uint256"
            },
            {
              "internalType": "uint256",
              "name": "duration",
              "type": "uint256"
            },
            {
              "internalType": "address",
              "name": "collection",
              "type": "address"
            },
            {
              "internalType": "address",
              "name": "lender",
              "type": "address"
            },
            {
              "internalType": "address",
              "name": "borrower",
              "type": "address"
            },
            {
              "internalType": "enum Cacao.OfferStatus",
              "name": "status",
              "type": "uint8"
            }
          ],
          "internalType": "struct Cacao.Offer[]",
          "name": "",
          "type": "tuple[]"
        }
      ],
      "stateMutability": "view",
      "type": "function"
    },
    {
      "inputs": [],
      "name": "offerCounter",
      "outputs": [
        {
          "internalType": "uint256",
          "name": "",
          "type": "uint256"
        }
      ],
      "stateMutability": "view",
      "type": "function"
    },
    {
      "inputs": [
        {
          "internalType": "uint256",
          "name": "",
          "type": "uint256"
        }
      ],
      "name": "offers",
      "outputs": [
        {
          "internalType": "uint256",
          "name": "offerId",
          "type": "uint256"
        },
        {
          "internalType": "uint256",
          "name": "tokenId",
          "type": "uint256"
        },
        {
          "internalType": "uint256",
          "name": "price",
          "type": "uint256"
        },
        {
          "internalType": "uint256",
          "name": "startTime",
          "type": "uint256"
        },
        {
          "internalType": "uint256",
          "name": "duration",
          "type": "uint256"
        },
        {
          "internalType": "address",
          "name": "collection",
          "type": "address"
        },
        {
          "internalType": "address",
          "name": "lender",
          "type": "address"
        },
        {
          "internalType": "address",
          "name": "borrower",
          "type": "address"
        },
        {
          "internalType": "enum Cacao.OfferStatus",
          "name": "status",
          "type": "uint8"
        }
      ],
      "stateMutability": "view",
      "type": "function"
    },
    {
      "inputs": [],
      "name": "owner",
      "outputs": [
        {
          "internalType": "address",
          "name": "",
          "type": "address"
        }
      ],
      "stateMutability": "view",
      "type": "function"
    },
    {
      "inputs": [],
      "name": "renounceOwnership",
      "outputs": [],
      "stateMutability": "nonpayable",
      "type": "function"
    },
    {
      "inputs": [
        {
          "internalType": "address",
          "name": "newOwner",
          "type": "address"
        }
      ],
      "name": "transferOwnership",
      "outputs": [],
      "stateMutability": "nonpayable",
      "type": "function"
    },
    {
      "inputs": [],
      "name": "withdrawByLender",
      "outputs": [],
      "stateMutability": "nonpayable",
      "type": "function"
    },
    {
      "inputs": [],
      "name": "withdrawFees",
      "outputs": [],
      "stateMutability": "nonpayable",
      "type": "function"
    },
    {
      "inputs": [
        {
          "internalType": "address",
          "name": "_collection",
          "type": "address"
        },
        {
          "internalType": "uint256",
          "name": "_tokenId",
          "type": "uint256"
        }
      ],
      "name": "withdrawNft",
      "outputs": [],
      "stateMutability": "nonpayable",
      "type": "function"
    }
  ],
  "transactionHash": "0xe46b1664dc7927414b0938812ab4e6e1d328bac71d4270203b839c73909df8c6",
  "args": [
    "0x00000000000076A84feF008CDAbe6409d2FE638B",
    "0x1CDc891e8534C9C070014cff663bfF2024b09b62",
    3
  ],
  "numDeployments": 4,
  "solcInputHash": "2c91c5ed45b2e944f44f34f5ac086c9b",
  "bytecode": "0x608060405260016003553480156200001657600080fd5b5060405162002d1c38038062002d1c83398181016040528101906200003c91906200025f565b6200005c62000050620000ee60201b60201c565b620000f660201b60201c565b82600160006101000a81548173ffffffffffffffffffffffffffffffffffffffff021916908373ffffffffffffffffffffffffffffffffffffffff16021790555081600260006101000a81548173ffffffffffffffffffffffffffffffffffffffff021916908373ffffffffffffffffffffffffffffffffffffffff16021790555080600481905550505050620002bb565b600033905090565b60008060009054906101000a900473ffffffffffffffffffffffffffffffffffffffff169050816000806101000a81548173ffffffffffffffffffffffffffffffffffffffff021916908373ffffffffffffffffffffffffffffffffffffffff1602179055508173ffffffffffffffffffffffffffffffffffffffff168173ffffffffffffffffffffffffffffffffffffffff167f8be0079c531659141344cd1fd0a4f28419497f9722a3daafe3b4186f6b6457e060405160405180910390a35050565b600080fd5b600073ffffffffffffffffffffffffffffffffffffffff82169050919050565b6000620001ec82620001bf565b9050919050565b620001fe81620001df565b81146200020a57600080fd5b50565b6000815190506200021e81620001f3565b92915050565b6000819050919050565b620002398162000224565b81146200024557600080fd5b50565b60008151905062000259816200022e565b92915050565b6000806000606084860312156200027b576200027a620001ba565b5b60006200028b868287016200020d565b93505060206200029e868287016200020d565b9250506040620002b18682870162000248565b9150509250925092565b612a5180620002cb6000396000f3fe6080604052600436106100fe5760003560e01c80638da5cb5b11610095578063b7a3c1da11610064578063b7a3c1da146102e4578063c4687b3c1461030f578063d8fc65191461034c578063ddca3f4314610375578063f2fde38b146103a0576100fe565b80638da5cb5b1461023a578063a165527814610265578063aba69cf814610290578063acf4a417146102cd576100fe565b80633c944e93116100d15780633c944e931461019e578063476343ee146101c7578063715018a6146101de5780638a72ea6a146101f5576100fe565b80630e030d6a146101035780631fbdd72d1461012c57806339d28818146101575780633c6fc81714610182575b600080fd5b34801561010f57600080fd5b5061012a60048036038101906101259190611fc2565b6103c9565b005b34801561013857600080fd5b50610141610739565b60405161014e9190612024565b60405180910390f35b34801561016357600080fd5b5061016c61075f565b6040516101799190612024565b60405180910390f35b61019c60048036038101906101979190611fc2565b610785565b005b3480156101aa57600080fd5b506101c560048036038101906101c0919061203f565b610c1e565b005b3480156101d357600080fd5b506101dc61120f565b005b3480156101ea57600080fd5b506101f3611267565b005b34801561020157600080fd5b5061021c600480360381019061021791906120a6565b61127b565b60405161023199989796959493929190612159565b60405180910390f35b34801561024657600080fd5b5061024f611346565b60405161025c9190612024565b60405180910390f35b34801561027157600080fd5b5061027a61136f565b604051610287919061237a565b60405180910390f35b34801561029c57600080fd5b506102b760048036038101906102b2919061239c565b61153e565b6040516102c4919061241e565b60405180910390f35b3480156102d957600080fd5b506102e26115ec565b005b3480156102f057600080fd5b506102f961163c565b6040516103069190612439565b60405180910390f35b34801561031b57600080fd5b5061033660048036038101906103319190612454565b611642565b604051610343919061237a565b60405180910390f35b34801561035857600080fd5b50610373600480360381019061036e9190612481565b611850565b005b34801561038157600080fd5b5061038a611c72565b6040516103979190612439565b60405180910390f35b3480156103ac57600080fd5b506103c760048036038101906103c29190612454565b611c78565b005b6000600582815481106103df576103de6124c1565b5b90600052602060002090600802016040518061012001604052908160008201548152602001600182015481526020016002820154815260200160038201548152602001600482015481526020016005820160009054906101000a900473ffffffffffffffffffffffffffffffffffffffff1673ffffffffffffffffffffffffffffffffffffffff1673ffffffffffffffffffffffffffffffffffffffff1681526020016006820160009054906101000a900473ffffffffffffffffffffffffffffffffffffffff1673ffffffffffffffffffffffffffffffffffffffff1673ffffffffffffffffffffffffffffffffffffffff1681526020016007820160009054906101000a900473ffffffffffffffffffffffffffffffffffffffff1673ffffffffffffffffffffffffffffffffffffffff1673ffffffffffffffffffffffffffffffffffffffff1681526020016007820160149054906101000a900460ff166004811115610552576105516120e2565b5b6004811115610564576105636120e2565b5b8152505090508160035411156105a6576040517f27ec605800000000000000000000000000000000000000000000000000000000815260040160405180910390fd5b3373ffffffffffffffffffffffffffffffffffffffff168160c0015173ffffffffffffffffffffffffffffffffffffffff161461060f576040517fdef1f6d800000000000000000000000000000000000000000000000000000000815260040160405180910390fd5b60016004811115610623576106226120e2565b5b816101000151600481111561063b5761063a6120e2565b5b03610672576040517f27ec605800000000000000000000000000000000000000000000000000000000815260040160405180910390fd5b6003816101000190600481111561068c5761068b6120e2565b5b908160048111156106a05761069f6120e2565b5b81525050600860008573ffffffffffffffffffffffffffffffffffffffff1673ffffffffffffffffffffffffffffffffffffffff1681526020019081526020016000206000848152602001908152602001600020600090557fa916c06d382a32a2d52751a0f59721c029227671188c07a99233bf72bd3c679b84848460405161072b939291906124f0565b60405180910390a150505050565b600160009054906101000a900473ffffffffffffffffffffffffffffffffffffffff1681565b600260009054906101000a900473ffffffffffffffffffffffffffffffffffffffff1681565b60006005828154811061079b5761079a6124c1565b5b90600052602060002090600802016040518061012001604052908160008201548152602001600182015481526020016002820154815260200160038201548152602001600482015481526020016005820160009054906101000a900473ffffffffffffffffffffffffffffffffffffffff1673ffffffffffffffffffffffffffffffffffffffff1673ffffffffffffffffffffffffffffffffffffffff1681526020016006820160009054906101000a900473ffffffffffffffffffffffffffffffffffffffff1673ffffffffffffffffffffffffffffffffffffffff1673ffffffffffffffffffffffffffffffffffffffff1681526020016007820160009054906101000a900473ffffffffffffffffffffffffffffffffffffffff1673ffffffffffffffffffffffffffffffffffffffff1673ffffffffffffffffffffffffffffffffffffffff1681526020016007820160149054906101000a900460ff16600481111561090e5761090d6120e2565b5b60048111156109205761091f6120e2565b5b8152505090506001600481111561093a576109396120e2565b5b8161010001516004811115610952576109516120e2565b5b14610989576040517f27ec605800000000000000000000000000000000000000000000000000000000815260040160405180910390fd5b34816040015111156109c7576040517f7185cbb900000000000000000000000000000000000000000000000000000000815260040160405180910390fd5b600073ffffffffffffffffffffffffffffffffffffffff168473ffffffffffffffffffffffffffffffffffffffff1603610a2d576040517fb171159000000000000000000000000000000000000000000000000000000000815260040160405180910390fd5b600060019050600160009054906101000a900473ffffffffffffffffffffffffffffffffffffffff1673ffffffffffffffffffffffffffffffffffffffff1663537a5c3d338787856040518563ffffffff1660e01b8152600401610a949493929190612527565b600060405180830381600087803b158015610aae57600080fd5b505af1158015610ac2573d6000803e3d6000fd5b505050506000606460045434610ad8919061259b565b610ae2919061260c565b90508034610af0919061263d565b600760008560c0015173ffffffffffffffffffffffffffffffffffffffff1673ffffffffffffffffffffffffffffffffffffffff1681526020019081526020016000206000828254610b429190612671565b9250508190555080600760003073ffffffffffffffffffffffffffffffffffffffff1673ffffffffffffffffffffffffffffffffffffffff1681526020019081526020016000206000828254610b989190612671565b9250508190555060028361010001906004811115610bb957610bb86120e2565b5b90816004811115610bcd57610bcc6120e2565b5b815250507ff78d98a848a4ae62ae2c07814b25e4bbb802299498dfb868d0ff2ebc72527fb984338560c00151898987604051610c0e969594939291906126a5565b60405180910390a1505050505050565b6000600860008473ffffffffffffffffffffffffffffffffffffffff1673ffffffffffffffffffffffffffffffffffffffff1681526020019081526020016000206000858152602001908152602001600020541115610ca9576040517f7c6188ca00000000000000000000000000000000000000000000000000000000815260040160405180910390fd5b60008403610ce3576040517f618011fc00000000000000000000000000000000000000000000000000000000815260040160405180910390fd5b62015180811015610d20576040517f618011fc00000000000000000000000000000000000000000000000000000000815260040160405180910390fd5b8173ffffffffffffffffffffffffffffffffffffffff166323b872dd33600260009054906101000a900473ffffffffffffffffffffffffffffffffffffffff16866040518463ffffffff1660e01b8152600401610d7f93929190612706565b600060405180830381600087803b158015610d9957600080fd5b505af1158015610dad573d6000803e3d6000fd5b50505050600060405180610120016040528060035481526020018581526020018681526020014281526020018381526020018473ffffffffffffffffffffffffffffffffffffffff1681526020013373ffffffffffffffffffffffffffffffffffffffff168152602001600073ffffffffffffffffffffffffffffffffffffffff16815260200160016004811115610e4857610e476120e2565b5b8152509050600354600860008573ffffffffffffffffffffffffffffffffffffffff1673ffffffffffffffffffffffffffffffffffffffff1681526020019081526020016000206000868152602001908152602001600020819055506005819080600181540180825580915050600190039060005260206000209060080201600090919091909150600082015181600001556020820151816001015560408201518160020155606082015181600301556080820151816004015560a08201518160050160006101000a81548173ffffffffffffffffffffffffffffffffffffffff021916908373ffffffffffffffffffffffffffffffffffffffff16021790555060c08201518160060160006101000a81548173ffffffffffffffffffffffffffffffffffffffff021916908373ffffffffffffffffffffffffffffffffffffffff16021790555060e08201518160070160006101000a81548173ffffffffffffffffffffffffffffffffffffffff021916908373ffffffffffffffffffffffffffffffffffffffff1602179055506101008201518160070160146101000a81548160ff02191690836004811115611003576110026120e2565b5b02179055505050600660003373ffffffffffffffffffffffffffffffffffffffff1673ffffffffffffffffffffffffffffffffffffffff168152602001908152602001600020819080600181540180825580915050600190039060005260206000209060080201600090919091909150600082015181600001556020820151816001015560408201518160020155606082015181600301556080820151816004015560a08201518160050160006101000a81548173ffffffffffffffffffffffffffffffffffffffff021916908373ffffffffffffffffffffffffffffffffffffffff16021790555060c08201518160060160006101000a81548173ffffffffffffffffffffffffffffffffffffffff021916908373ffffffffffffffffffffffffffffffffffffffff16021790555060e08201518160070160006101000a81548173ffffffffffffffffffffffffffffffffffffffff021916908373ffffffffffffffffffffffffffffffffffffffff1602179055506101008201518160070160146101000a81548160ff021916908360048111156111a6576111a56120e2565b5b021790555050507ff22d97b4cb01b976b00b987146fcc46cad19bf21f1ef6a88e93dacc97dbdb3d060035486868686336040516111e89695949392919061273d565b60405180910390a1600360008154809291906112039061279e565b91905055505050505050565b611217611cfb565b6000600760003073ffffffffffffffffffffffffffffffffffffffff1673ffffffffffffffffffffffffffffffffffffffff16815260200190815260200160002054905061126481611d79565b50565b61126f611cfb565b6112796000611e5d565b565b6005818154811061128b57600080fd5b90600052602060002090600802016000915090508060000154908060010154908060020154908060030154908060040154908060050160009054906101000a900473ffffffffffffffffffffffffffffffffffffffff16908060060160009054906101000a900473ffffffffffffffffffffffffffffffffffffffff16908060070160009054906101000a900473ffffffffffffffffffffffffffffffffffffffff16908060070160149054906101000a900460ff16905089565b60008060009054906101000a900473ffffffffffffffffffffffffffffffffffffffff16905090565b60606005805480602002602001604051908101604052809291908181526020016000905b8282101561153557838290600052602060002090600802016040518061012001604052908160008201548152602001600182015481526020016002820154815260200160038201548152602001600482015481526020016005820160009054906101000a900473ffffffffffffffffffffffffffffffffffffffff1673ffffffffffffffffffffffffffffffffffffffff1673ffffffffffffffffffffffffffffffffffffffff1681526020016006820160009054906101000a900473ffffffffffffffffffffffffffffffffffffffff1673ffffffffffffffffffffffffffffffffffffffff1673ffffffffffffffffffffffffffffffffffffffff1681526020016007820160009054906101000a900473ffffffffffffffffffffffffffffffffffffffff1673ffffffffffffffffffffffffffffffffffffffff1673ffffffffffffffffffffffffffffffffffffffff1681526020016007820160149054906101000a900460ff1660048111156115105761150f6120e2565b5b6004811115611522576115216120e2565b5b8152505081526020019060010190611393565b50505050905090565b6000600160009054906101000a900473ffffffffffffffffffffffffffffffffffffffff1673ffffffffffffffffffffffffffffffffffffffff1663aba69cf8868686866040518563ffffffff1660e01b81526004016115a194939291906127e6565b602060405180830381865afa1580156115be573d6000803e3d6000fd5b505050506040513d601f19601f820116820180604052508101906115e29190612857565b9050949350505050565b6000600760003373ffffffffffffffffffffffffffffffffffffffff1673ffffffffffffffffffffffffffffffffffffffff16815260200190815260200160002054905061163981611d79565b50565b60035481565b6060600660008373ffffffffffffffffffffffffffffffffffffffff1673ffffffffffffffffffffffffffffffffffffffff168152602001908152602001600020805480602002602001604051908101604052809291908181526020016000905b8282101561184557838290600052602060002090600802016040518061012001604052908160008201548152602001600182015481526020016002820154815260200160038201548152602001600482015481526020016005820160009054906101000a900473ffffffffffffffffffffffffffffffffffffffff1673ffffffffffffffffffffffffffffffffffffffff1673ffffffffffffffffffffffffffffffffffffffff1681526020016006820160009054906101000a900473ffffffffffffffffffffffffffffffffffffffff1673ffffffffffffffffffffffffffffffffffffffff1673ffffffffffffffffffffffffffffffffffffffff1681526020016007820160009054906101000a900473ffffffffffffffffffffffffffffffffffffffff1673ffffffffffffffffffffffffffffffffffffffff1673ffffffffffffffffffffffffffffffffffffffff1681526020016007820160149054906101000a900460ff1660048111156118205761181f6120e2565b5b6004811115611832576118316120e2565b5b81525050815260200190600101906116a3565b505050509050919050565b6000600860008473ffffffffffffffffffffffffffffffffffffffff1673ffffffffffffffffffffffffffffffffffffffff16815260200190815260200160002060008381526020019081526020016000205490506000600582815481106118bb576118ba6124c1565b5b90600052602060002090600802016040518061012001604052908160008201548152602001600182015481526020016002820154815260200160038201548152602001600482015481526020016005820160009054906101000a900473ffffffffffffffffffffffffffffffffffffffff1673ffffffffffffffffffffffffffffffffffffffff1673ffffffffffffffffffffffffffffffffffffffff1681526020016006820160009054906101000a900473ffffffffffffffffffffffffffffffffffffffff1673ffffffffffffffffffffffffffffffffffffffff1673ffffffffffffffffffffffffffffffffffffffff1681526020016007820160009054906101000a900473ffffffffffffffffffffffffffffffffffffffff1673ffffffffffffffffffffffffffffffffffffffff1673ffffffffffffffffffffffffffffffffffffffff1681526020016007820160149054906101000a900460ff166004811115611a2e57611a2d6120e2565b5b6004811115611a4057611a3f6120e2565b5b8152505090504281608001518260600151611a5b9190612671565b1115611a93576040517fe8f8165900000000000000000000000000000000000000000000000000000000815260040160405180910390fd5b60008473ffffffffffffffffffffffffffffffffffffffff16636352211e856040518263ffffffff1660e01b8152600401611ace9190612439565b602060405180830381865afa158015611aeb573d6000803e3d6000fd5b505050506040513d601f19601f82011682018060405250810190611b0f9190612899565b90503373ffffffffffffffffffffffffffffffffffffffff168173ffffffffffffffffffffffffffffffffffffffff1614611b76576040517fdef1f6d800000000000000000000000000000000000000000000000000000000815260040160405180910390fd5b600860008673ffffffffffffffffffffffffffffffffffffffff1673ffffffffffffffffffffffffffffffffffffffff16815260200190815260200160002060008581526020019081526020016000206000905560048261010001906004811115611be457611be36120e2565b5b90816004811115611bf857611bf76120e2565b5b815250508473ffffffffffffffffffffffffffffffffffffffff166342842e0e3033876040518463ffffffff1660e01b8152600401611c3993929190612706565b600060405180830381600087803b158015611c5357600080fd5b505af1158015611c67573d6000803e3d6000fd5b505050505050505050565b60045481565b611c80611cfb565b600073ffffffffffffffffffffffffffffffffffffffff168173ffffffffffffffffffffffffffffffffffffffff1603611cef576040517f08c379a0000000000000000000000000000000000000000000000000000000008152600401611ce690612949565b60405180910390fd5b611cf881611e5d565b50565b611d03611f21565b73ffffffffffffffffffffffffffffffffffffffff16611d21611346565b73ffffffffffffffffffffffffffffffffffffffff1614611d77576040517f08c379a0000000000000000000000000000000000000000000000000000000008152600401611d6e906129b5565b60405180910390fd5b565b47905060008103611db6576040517f7185cbb900000000000000000000000000000000000000000000000000000000815260040160405180910390fd5b60003373ffffffffffffffffffffffffffffffffffffffff1647604051611ddc90612a06565b60006040518083038185875af1925050503d8060008114611e19576040519150601f19603f3d011682016040523d82523d6000602084013e611e1e565b606091505b5050905080611e59576040517f90ada07c00000000000000000000000000000000000000000000000000000000815260040160405180910390fd5b5050565b60008060009054906101000a900473ffffffffffffffffffffffffffffffffffffffff169050816000806101000a81548173ffffffffffffffffffffffffffffffffffffffff021916908373ffffffffffffffffffffffffffffffffffffffff1602179055508173ffffffffffffffffffffffffffffffffffffffff168173ffffffffffffffffffffffffffffffffffffffff167f8be0079c531659141344cd1fd0a4f28419497f9722a3daafe3b4186f6b6457e060405160405180910390a35050565b600033905090565b600080fd5b600073ffffffffffffffffffffffffffffffffffffffff82169050919050565b6000611f5982611f2e565b9050919050565b611f6981611f4e565b8114611f7457600080fd5b50565b600081359050611f8681611f60565b92915050565b6000819050919050565b611f9f81611f8c565b8114611faa57600080fd5b50565b600081359050611fbc81611f96565b92915050565b600080600060608486031215611fdb57611fda611f29565b5b6000611fe986828701611f77565b9350506020611ffa86828701611fad565b925050604061200b86828701611fad565b9150509250925092565b61201e81611f4e565b82525050565b60006020820190506120396000830184612015565b92915050565b6000806000806080858703121561205957612058611f29565b5b600061206787828801611fad565b945050602061207887828801611fad565b935050604061208987828801611f77565b925050606061209a87828801611fad565b91505092959194509250565b6000602082840312156120bc576120bb611f29565b5b60006120ca84828501611fad565b91505092915050565b6120dc81611f8c565b82525050565b7f4e487b7100000000000000000000000000000000000000000000000000000000600052602160045260246000fd5b60058110612122576121216120e2565b5b50565b600081905061213382612111565b919050565b600061214382612125565b9050919050565b61215381612138565b82525050565b60006101208201905061216f600083018c6120d3565b61217c602083018b6120d3565b612189604083018a6120d3565b61219660608301896120d3565b6121a360808301886120d3565b6121b060a0830187612015565b6121bd60c0830186612015565b6121ca60e0830185612015565b6121d861010083018461214a565b9a9950505050505050505050565b600081519050919050565b600082825260208201905092915050565b6000819050602082019050919050565b61221b81611f8c565b82525050565b61222a81611f4e565b82525050565b61223981612138565b82525050565b610120820160008201516122566000850182612212565b5060208201516122696020850182612212565b50604082015161227c6040850182612212565b50606082015161228f6060850182612212565b5060808201516122a26080850182612212565b5060a08201516122b560a0850182612221565b5060c08201516122c860c0850182612221565b5060e08201516122db60e0850182612221565b506101008201516122f0610100850182612230565b50505050565b6000612302838361223f565b6101208301905092915050565b6000602082019050919050565b6000612327826121e6565b61233181856121f1565b935061233c83612202565b8060005b8381101561236d57815161235488826122f6565b975061235f8361230f565b925050600181019050612340565b5085935050505092915050565b60006020820190508181036000830152612394818461231c565b905092915050565b600080600080608085870312156123b6576123b5611f29565b5b60006123c487828801611f77565b94505060206123d587828801611f77565b93505060406123e687828801611f77565b92505060606123f787828801611fad565b91505092959194509250565b60008115159050919050565b61241881612403565b82525050565b6000602082019050612433600083018461240f565b92915050565b600060208201905061244e60008301846120d3565b92915050565b60006020828403121561246a57612469611f29565b5b600061247884828501611f77565b91505092915050565b6000806040838503121561249857612497611f29565b5b60006124a685828601611f77565b92505060206124b785828601611fad565b9150509250929050565b7f4e487b7100000000000000000000000000000000000000000000000000000000600052603260045260246000fd5b60006060820190506125056000830186612015565b61251260208301856120d3565b61251f60408301846120d3565b949350505050565b600060808201905061253c6000830187612015565b6125496020830186612015565b61255660408301856120d3565b612563606083018461240f565b95945050505050565b7f4e487b7100000000000000000000000000000000000000000000000000000000600052601160045260246000fd5b60006125a682611f8c565b91506125b183611f8c565b92508282026125bf81611f8c565b915082820484148315176125d6576125d561256c565b5b5092915050565b7f4e487b7100000000000000000000000000000000000000000000000000000000600052601260045260246000fd5b600061261782611f8c565b915061262283611f8c565b925082612632576126316125dd565b5b828204905092915050565b600061264882611f8c565b915061265383611f8c565b925082820390508181111561266b5761266a61256c565b5b92915050565b600061267c82611f8c565b915061268783611f8c565b925082820190508082111561269f5761269e61256c565b5b92915050565b600060c0820190506126ba60008301896120d3565b6126c76020830188612015565b6126d46040830187612015565b6126e16060830186612015565b6126ee60808301856120d3565b6126fb60a083018461240f565b979650505050505050565b600060608201905061271b6000830186612015565b6127286020830185612015565b61273560408301846120d3565b949350505050565b600060c08201905061275260008301896120d3565b61275f60208301886120d3565b61276c60408301876120d3565b6127796060830186612015565b61278660808301856120d3565b61279360a0830184612015565b979650505050505050565b60006127a982611f8c565b91507fffffffffffffffffffffffffffffffffffffffffffffffffffffffffffffffff82036127db576127da61256c565b5b600182019050919050565b60006080820190506127fb6000830187612015565b6128086020830186612015565b6128156040830185612015565b61282260608301846120d3565b95945050505050565b61283481612403565b811461283f57600080fd5b50565b6000815190506128518161282b565b92915050565b60006020828403121561286d5761286c611f29565b5b600061287b84828501612842565b91505092915050565b60008151905061289381611f60565b92915050565b6000602082840312156128af576128ae611f29565b5b60006128bd84828501612884565b91505092915050565b600082825260208201905092915050565b7f4f776e61626c653a206e6577206f776e657220697320746865207a65726f206160008201527f6464726573730000000000000000000000000000000000000000000000000000602082015250565b60006129336026836128c6565b915061293e826128d7565b604082019050919050565b6000602082019050818103600083015261296281612926565b9050919050565b7f4f776e61626c653a2063616c6c6572206973206e6f7420746865206f776e6572600082015250565b600061299f6020836128c6565b91506129aa82612969565b602082019050919050565b600060208201905081810360008301526129ce81612992565b9050919050565b600081905092915050565b50565b60006129f06000836129d5565b91506129fb826129e0565b600082019050919050565b6000612a11826129e3565b915081905091905056fea264697066735822122068976c85ff21d32def15b4f5f8f13dddd53d62414255e45c4321fdbaf7e426c364736f6c63430008110033",
  "devdoc": {
    "kind": "dev",
    "methods": {
      "owner()": {
        "details": "Returns the address of the current owner."
      },
      "renounceOwnership()": {
        "details": "Leaves the contract without owner. It will not be possible to call `onlyOwner` functions anymore. Can only be called by the current owner. NOTE: Renouncing ownership will leave the contract without an owner, thereby removing any functionality that is only available to the owner."
      },
      "transferOwnership(address)": {
        "details": "Transfers ownership of the contract to a new account (`newOwner`). Can only be called by the current owner."
      }
    },
    "version": 1
  },
  "userdoc": {
    "kind": "user",
    "methods": {},
    "version": 1
  },
  "storageLayout": {
    "storage": [
      {
        "astId": 7,
        "contract": "contracts/Cacao.sol:Cacao",
        "label": "_owner",
        "offset": 0,
        "slot": "0",
        "type": "t_address"
      },
      {
        "astId": 2680,
        "contract": "contracts/Cacao.sol:Cacao",
        "label": "delegationRegistry",
        "offset": 0,
        "slot": "1",
        "type": "t_address"
      },
      {
        "astId": 2682,
        "contract": "contracts/Cacao.sol:Cacao",
        "label": "cacaoVault",
        "offset": 0,
        "slot": "2",
        "type": "t_address"
      },
      {
        "astId": 2685,
        "contract": "contracts/Cacao.sol:Cacao",
        "label": "offerCounter",
        "offset": 0,
        "slot": "3",
        "type": "t_uint256"
      },
      {
        "astId": 2687,
        "contract": "contracts/Cacao.sol:Cacao",
        "label": "fee",
        "offset": 0,
        "slot": "4",
        "type": "t_uint256"
      },
      {
        "astId": 2711,
        "contract": "contracts/Cacao.sol:Cacao",
        "label": "offers",
        "offset": 0,
        "slot": "5",
        "type": "t_array(t_struct(Offer)2707_storage)dyn_storage"
      },
      {
        "astId": 2717,
        "contract": "contracts/Cacao.sol:Cacao",
        "label": "offersByLender",
        "offset": 0,
        "slot": "6",
        "type": "t_mapping(t_address,t_array(t_struct(Offer)2707_storage)dyn_storage)"
      },
      {
        "astId": 2721,
        "contract": "contracts/Cacao.sol:Cacao",
        "label": "balances",
        "offset": 0,
        "slot": "7",
        "type": "t_mapping(t_address,t_uint256)"
      },
      {
        "astId": 2727,
        "contract": "contracts/Cacao.sol:Cacao",
        "label": "tokenToOfferId",
        "offset": 0,
        "slot": "8",
        "type": "t_mapping(t_address,t_mapping(t_uint256,t_uint256))"
      }
    ],
    "types": {
      "t_address": {
        "encoding": "inplace",
        "label": "address",
        "numberOfBytes": "20"
      },
      "t_array(t_struct(Offer)2707_storage)dyn_storage": {
        "base": "t_struct(Offer)2707_storage",
        "encoding": "dynamic_array",
        "label": "struct Cacao.Offer[]",
        "numberOfBytes": "32"
      },
      "t_enum(OfferStatus)2678": {
        "encoding": "inplace",
        "label": "enum Cacao.OfferStatus",
        "numberOfBytes": "1"
      },
      "t_mapping(t_address,t_array(t_struct(Offer)2707_storage)dyn_storage)": {
        "encoding": "mapping",
        "key": "t_address",
        "label": "mapping(address => struct Cacao.Offer[])",
        "numberOfBytes": "32",
        "value": "t_array(t_struct(Offer)2707_storage)dyn_storage"
      },
      "t_mapping(t_address,t_mapping(t_uint256,t_uint256))": {
        "encoding": "mapping",
        "key": "t_address",
        "label": "mapping(address => mapping(uint256 => uint256))",
        "numberOfBytes": "32",
        "value": "t_mapping(t_uint256,t_uint256)"
      },
      "t_mapping(t_address,t_uint256)": {
        "encoding": "mapping",
        "key": "t_address",
        "label": "mapping(address => uint256)",
        "numberOfBytes": "32",
        "value": "t_uint256"
      },
      "t_mapping(t_uint256,t_uint256)": {
        "encoding": "mapping",
        "key": "t_uint256",
        "label": "mapping(uint256 => uint256)",
        "numberOfBytes": "32",
        "value": "t_uint256"
      },
      "t_struct(Offer)2707_storage": {
        "encoding": "inplace",
        "label": "struct Cacao.Offer",
        "members": [
          {
            "astId": 2689,
            "contract": "contracts/Cacao.sol:Cacao",
            "label": "offerId",
            "offset": 0,
            "slot": "0",
            "type": "t_uint256"
          },
          {
            "astId": 2691,
            "contract": "contracts/Cacao.sol:Cacao",
            "label": "tokenId",
            "offset": 0,
            "slot": "1",
            "type": "t_uint256"
          },
          {
            "astId": 2693,
            "contract": "contracts/Cacao.sol:Cacao",
            "label": "price",
            "offset": 0,
            "slot": "2",
            "type": "t_uint256"
          },
          {
            "astId": 2695,
            "contract": "contracts/Cacao.sol:Cacao",
            "label": "startTime",
            "offset": 0,
            "slot": "3",
            "type": "t_uint256"
          },
          {
            "astId": 2697,
            "contract": "contracts/Cacao.sol:Cacao",
            "label": "duration",
            "offset": 0,
            "slot": "4",
            "type": "t_uint256"
          },
          {
            "astId": 2699,
            "contract": "contracts/Cacao.sol:Cacao",
            "label": "collection",
            "offset": 0,
            "slot": "5",
            "type": "t_address"
          },
          {
            "astId": 2701,
            "contract": "contracts/Cacao.sol:Cacao",
            "label": "lender",
            "offset": 0,
            "slot": "6",
            "type": "t_address"
          },
          {
            "astId": 2703,
            "contract": "contracts/Cacao.sol:Cacao",
            "label": "borrower",
            "offset": 0,
            "slot": "7",
            "type": "t_address"
          },
          {
            "astId": 2706,
            "contract": "contracts/Cacao.sol:Cacao",
            "label": "status",
            "offset": 20,
            "slot": "7",
            "type": "t_enum(OfferStatus)2678"
          }
        ],
        "numberOfBytes": "256"
      },
      "t_uint256": {
        "encoding": "inplace",
        "label": "uint256",
        "numberOfBytes": "32"
      }
    }
  }
}