{
  "address": "0xd00636a4F4dA729FA79C7E9556dc95b26c0986Bb",
  "abi": [
    {
      "inputs": [
        {
          "internalType": "address",
          "name": "_delegationRegistry",
          "type": "address"
        },
        {
          "internalType": "uint256",
          "name": "_fee",
          "type": "uint256"
        }
      ],
      "stateMutability": "nonpayable",
      "type": "constructor"
    },
    {
      "inputs": [],
      "name": "Cacao__NotEnoughFunds",
      "type": "error"
    },
    {
      "inputs": [],
      "name": "Cacao__NotOwner",
      "type": "error"
    },
    {
      "inputs": [],
      "name": "Cacao__OfferExists",
      "type": "error"
    },
    {
      "inputs": [],
      "name": "Cacao__OfferNotAvailable",
      "type": "error"
    },
    {
      "inputs": [],
      "name": "Cacao__TransferFailed",
      "type": "error"
    },
    {
      "inputs": [],
      "name": "Cacao__WrongAddress",
      "type": "error"
    },
    {
      "inputs": [],
      "name": "Cacao__WrongIdNumber",
      "type": "error"
    },
    {
      "inputs": [],
      "name": "Cacao__WrongInput",
      "type": "error"
    },
    {
      "anonymous": false,
      "inputs": [
        {
          "indexed": false,
          "internalType": "uint256",
          "name": "id",
          "type": "uint256"
        },
        {
          "indexed": false,
          "internalType": "address",
          "name": "vault",
          "type": "address"
        },
        {
          "indexed": false,
          "internalType": "address",
          "name": "delegate",
          "type": "address"
        },
        {
          "indexed": false,
          "internalType": "address",
          "name": "contract_",
          "type": "address"
        },
        {
          "indexed": false,
          "internalType": "uint256",
          "name": "tokenId",
          "type": "uint256"
        },
        {
          "indexed": false,
          "internalType": "bool",
          "name": "value",
          "type": "bool"
        }
      ],
      "name": "OfferAccepted",
      "type": "event"
    },
    {
      "anonymous": false,
      "inputs": [
        {
          "indexed": false,
          "internalType": "uint256",
          "name": "id",
          "type": "uint256"
        }
      ],
      "name": "OfferCancelled",
      "type": "event"
    },
    {
      "anonymous": false,
      "inputs": [
        {
          "indexed": false,
          "internalType": "uint256",
          "name": "id",
          "type": "uint256"
        },
        {
          "indexed": false,
          "internalType": "uint256",
          "name": "price",
          "type": "uint256"
        },
        {
          "indexed": false,
          "internalType": "uint256",
          "name": "tokenId",
          "type": "uint256"
        },
        {
          "indexed": false,
          "internalType": "address",
          "name": "collection",
          "type": "address"
        },
        {
          "indexed": false,
          "internalType": "uint256",
          "name": "duration",
          "type": "uint256"
        },
        {
          "indexed": false,
          "internalType": "address",
          "name": "lender",
          "type": "address"
        }
      ],
      "name": "OfferCreated",
      "type": "event"
    },
    {
      "anonymous": false,
      "inputs": [
        {
          "indexed": true,
          "internalType": "address",
          "name": "previousOwner",
          "type": "address"
        },
        {
          "indexed": true,
          "internalType": "address",
          "name": "newOwner",
          "type": "address"
        }
      ],
      "name": "OwnershipTransferred",
      "type": "event"
    },
    {
      "inputs": [
        {
          "internalType": "uint256",
          "name": "_offerId",
          "type": "uint256"
        }
      ],
      "name": "cancelOffer",
      "outputs": [],
      "stateMutability": "nonpayable",
      "type": "function"
    },
    {
      "inputs": [
        {
          "internalType": "address",
          "name": "_delegate",
          "type": "address"
        },
        {
          "internalType": "address",
          "name": "_vault",
          "type": "address"
        },
        {
          "internalType": "address",
          "name": "_contract",
          "type": "address"
        },
        {
          "internalType": "uint256",
          "name": "tokenId",
          "type": "uint256"
        }
      ],
      "name": "checkDelegateForToken",
      "outputs": [
        {
          "internalType": "bool",
          "name": "result",
          "type": "bool"
        }
      ],
      "stateMutability": "view",
      "type": "function"
    },
    {
      "inputs": [
        {
          "internalType": "uint256",
          "name": "_price",
          "type": "uint256"
        },
        {
          "internalType": "uint256",
          "name": "_tokenId",
          "type": "uint256"
        },
        {
          "internalType": "address",
          "name": "_collection",
          "type": "address"
        },
        {
          "internalType": "uint256",
          "name": "_duration",
          "type": "uint256"
        }
      ],
      "name": "createOffer",
      "outputs": [],
      "stateMutability": "nonpayable",
      "type": "function"
    },
    {
      "inputs": [
        {
          "internalType": "address",
          "name": "_delegate",
          "type": "address"
        },
        {
          "internalType": "address",
          "name": "_collection",
          "type": "address"
        },
        {
          "internalType": "uint256",
          "name": "_tokenId",
          "type": "uint256"
        },
        {
          "internalType": "uint256",
          "name": "offerId",
          "type": "uint256"
        }
      ],
      "name": "delegateForToken",
      "outputs": [],
      "stateMutability": "payable",
      "type": "function"
    },
    {
      "inputs": [],
      "name": "delegationRegistry",
      "outputs": [
        {
          "internalType": "contract IDelegationRegistry",
          "name": "",
          "type": "address"
        }
      ],
      "stateMutability": "view",
      "type": "function"
    },
    {
      "inputs": [],
      "name": "fee",
      "outputs": [
        {
          "internalType": "uint256",
          "name": "",
          "type": "uint256"
        }
      ],
      "stateMutability": "view",
      "type": "function"
    },
    {
      "inputs": [],
      "name": "getAllOffers",
      "outputs": [
        {
          "components": [
            {
              "internalType": "uint256",
              "name": "offerId",
              "type": "uint256"
            },
            {
              "internalType": "uint256",
              "name": "tokenId",
              "type": "uint256"
            },
            {
              "internalType": "uint256",
              "name": "price",
              "type": "uint256"
            },
            {
              "internalType": "uint256",
              "name": "startTime",
              "type": "uint256"
            },
            {
              "internalType": "uint256",
              "name": "duration",
              "type": "uint256"
            },
            {
              "internalType": "address",
              "name": "collection",
              "type": "address"
            },
            {
              "internalType": "address",
              "name": "lender",
              "type": "address"
            },
            {
              "internalType": "address",
              "name": "borrower",
              "type": "address"
            },
            {
              "internalType": "enum Cacao.OfferStatus",
              "name": "status",
              "type": "uint8"
            }
          ],
          "internalType": "struct Cacao.Offer[]",
          "name": "",
          "type": "tuple[]"
        }
      ],
      "stateMutability": "view",
      "type": "function"
    },
    {
      "inputs": [
        {
          "internalType": "address",
          "name": "lender",
          "type": "address"
        }
      ],
      "name": "getOfferByLender",
      "outputs": [
        {
          "components": [
            {
              "internalType": "uint256",
              "name": "offerId",
              "type": "uint256"
            },
            {
              "internalType": "uint256",
              "name": "tokenId",
              "type": "uint256"
            },
            {
              "internalType": "uint256",
              "name": "price",
              "type": "uint256"
            },
            {
              "internalType": "uint256",
              "name": "startTime",
              "type": "uint256"
            },
            {
              "internalType": "uint256",
              "name": "duration",
              "type": "uint256"
            },
            {
              "internalType": "address",
              "name": "collection",
              "type": "address"
            },
            {
              "internalType": "address",
              "name": "lender",
              "type": "address"
            },
            {
              "internalType": "address",
              "name": "borrower",
              "type": "address"
            },
            {
              "internalType": "enum Cacao.OfferStatus",
              "name": "status",
              "type": "uint8"
            }
          ],
          "internalType": "struct Cacao.Offer[]",
          "name": "",
          "type": "tuple[]"
        }
      ],
      "stateMutability": "view",
      "type": "function"
    },
    {
      "inputs": [],
      "name": "offerCounter",
      "outputs": [
        {
          "internalType": "uint256",
          "name": "",
          "type": "uint256"
        }
      ],
      "stateMutability": "view",
      "type": "function"
    },
    {
      "inputs": [
        {
          "internalType": "uint256",
          "name": "",
          "type": "uint256"
        }
      ],
      "name": "offers",
      "outputs": [
        {
          "internalType": "uint256",
          "name": "offerId",
          "type": "uint256"
        },
        {
          "internalType": "uint256",
          "name": "tokenId",
          "type": "uint256"
        },
        {
          "internalType": "uint256",
          "name": "price",
          "type": "uint256"
        },
        {
          "internalType": "uint256",
          "name": "startTime",
          "type": "uint256"
        },
        {
          "internalType": "uint256",
          "name": "duration",
          "type": "uint256"
        },
        {
          "internalType": "address",
          "name": "collection",
          "type": "address"
        },
        {
          "internalType": "address",
          "name": "lender",
          "type": "address"
        },
        {
          "internalType": "address",
          "name": "borrower",
          "type": "address"
        },
        {
          "internalType": "enum Cacao.OfferStatus",
          "name": "status",
          "type": "uint8"
        }
      ],
      "stateMutability": "view",
      "type": "function"
    },
    {
      "inputs": [],
      "name": "owner",
      "outputs": [
        {
          "internalType": "address",
          "name": "",
          "type": "address"
        }
      ],
      "stateMutability": "view",
      "type": "function"
    },
    {
      "inputs": [],
      "name": "renounceOwnership",
      "outputs": [],
      "stateMutability": "nonpayable",
      "type": "function"
    },
    {
      "inputs": [
        {
          "internalType": "address",
          "name": "newOwner",
          "type": "address"
        }
      ],
      "name": "transferOwnership",
      "outputs": [],
      "stateMutability": "nonpayable",
      "type": "function"
    },
    {
      "inputs": [],
      "name": "withdrawByLender",
      "outputs": [],
      "stateMutability": "nonpayable",
      "type": "function"
    },
    {
      "inputs": [],
      "name": "withdrawFees",
      "outputs": [],
      "stateMutability": "nonpayable",
      "type": "function"
    },
    {
      "inputs": [
        {
          "internalType": "address",
          "name": "_collection",
          "type": "address"
        },
        {
          "internalType": "uint256",
          "name": "_tokenId",
          "type": "uint256"
        }
      ],
      "name": "withdrawNft",
      "outputs": [],
      "stateMutability": "nonpayable",
      "type": "function"
    }
  ],
  "transactionHash": "0xbd71aa5592cbe7826739f3dfa4ef47ab05e2ad9b1f072188388380c40a7aaac4",
  "args": [
    "0x00000000000076A84feF008CDAbe6409d2FE638B",
    3
  ],
  "numDeployments": 3,
  "solcInputHash": "102d3a9f80257dfca0a7172ec5064de2",
  "bytecode": "0x60806040523480156200001157600080fd5b506040516200294138038062002941833981810160405281019062000037919062000218565b620000576200004b620000a760201b60201c565b620000af60201b60201c565b81600160006101000a81548173ffffffffffffffffffffffffffffffffffffffff021916908373ffffffffffffffffffffffffffffffffffffffff1602179055508060038190555050506200025f565b600033905090565b60008060009054906101000a900473ffffffffffffffffffffffffffffffffffffffff169050816000806101000a81548173ffffffffffffffffffffffffffffffffffffffff021916908373ffffffffffffffffffffffffffffffffffffffff1602179055508173ffffffffffffffffffffffffffffffffffffffff168173ffffffffffffffffffffffffffffffffffffffff167f8be0079c531659141344cd1fd0a4f28419497f9722a3daafe3b4186f6b6457e060405160405180910390a35050565b600080fd5b600073ffffffffffffffffffffffffffffffffffffffff82169050919050565b6000620001a58262000178565b9050919050565b620001b78162000198565b8114620001c357600080fd5b50565b600081519050620001d781620001ac565b92915050565b6000819050919050565b620001f281620001dd565b8114620001fe57600080fd5b50565b6000815190506200021281620001e7565b92915050565b6000806040838503121562000232576200023162000173565b5b60006200024285828601620001c6565b9250506020620002558582860162000201565b9150509250929050565b6126d2806200026f6000396000f3fe6080604052600436106100f35760003560e01c8063aba69cf81161008a578063d8fc651911610059578063d8fc6519146102ed578063ddca3f4314610316578063ef706adf14610341578063f2fde38b1461036a576100f3565b8063aba69cf814610231578063acf4a4171461026e578063b7a3c1da14610285578063c4687b3c146102b0576100f3565b8063715018a6116100c6578063715018a61461017f5780638a72ea6a146101965780638da5cb5b146101db578063a165527814610206576100f3565b80631fbdd72d146100f85780633c944e9314610123578063476343ee1461014c578063657bcc9814610163575b600080fd5b34801561010457600080fd5b5061010d610393565b60405161011a9190611ba9565b60405180910390f35b34801561012f57600080fd5b5061014a60048036038101906101459190611c3d565b6103b9565b005b34801561015857600080fd5b50610161610af8565b005b61017d60048036038101906101789190611ca4565b610b50565b005b34801561018b57600080fd5b50610194611013565b005b3480156101a257600080fd5b506101bd60048036038101906101b89190611d0b565b611027565b6040516101d299989796959493929190611dcd565b60405180910390f35b3480156101e757600080fd5b506101f06110f2565b6040516101fd9190611e5a565b60405180910390f35b34801561021257600080fd5b5061021b61111b565b6040516102289190612009565b60405180910390f35b34801561023d57600080fd5b506102586004803603810190610253919061202b565b6112ea565b60405161026591906120ad565b60405180910390f35b34801561027a57600080fd5b50610283611398565b005b34801561029157600080fd5b5061029a6113e8565b6040516102a791906120c8565b60405180910390f35b3480156102bc57600080fd5b506102d760048036038101906102d291906120e3565b6113ee565b6040516102e49190612009565b60405180910390f35b3480156102f957600080fd5b50610314600480360381019061030f9190612110565b6115fc565b005b34801561032257600080fd5b5061032b611675565b60405161033891906120c8565b60405180910390f35b34801561034d57600080fd5b5061036860048036038101906103639190611d0b565b61167b565b005b34801561037657600080fd5b50610391600480360381019061038c91906120e3565b611879565b005b600160009054906101000a900473ffffffffffffffffffffffffffffffffffffffff1681565b600760008373ffffffffffffffffffffffffffffffffffffffff1673ffffffffffffffffffffffffffffffffffffffff168152602001908152602001600020600084815260200190815260200160002060009054906101000a900460ff161561044e576040517f7c6188ca00000000000000000000000000000000000000000000000000000000815260040160405180910390fd5b60008403610488576040517f7185cbb900000000000000000000000000000000000000000000000000000000815260040160405180910390fd5b620151808110156104c5576040517f618011fc00000000000000000000000000000000000000000000000000000000815260040160405180910390fd5b600082905060008173ffffffffffffffffffffffffffffffffffffffff16636352211e866040518263ffffffff1660e01b815260040161050591906120c8565b602060405180830381865afa158015610522573d6000803e3d6000fd5b505050506040513d601f19601f820116820180604052508101906105469190612165565b9050600073ffffffffffffffffffffffffffffffffffffffff168173ffffffffffffffffffffffffffffffffffffffff16146105ae576040517f618011fc00000000000000000000000000000000000000000000000000000000815260040160405180910390fd5b3373ffffffffffffffffffffffffffffffffffffffff168173ffffffffffffffffffffffffffffffffffffffff1614610613576040517fdef1f6d800000000000000000000000000000000000000000000000000000000815260040160405180910390fd5b8173ffffffffffffffffffffffffffffffffffffffff1663095ea7b330876040518363ffffffff1660e01b815260040161064e929190612192565b600060405180830381600087803b15801561066857600080fd5b505af115801561067c573d6000803e3d6000fd5b505050508173ffffffffffffffffffffffffffffffffffffffff166342842e0e3330886040518463ffffffff1660e01b81526004016106bd939291906121bb565b600060405180830381600087803b1580156106d757600080fd5b505af11580156106eb573d6000803e3d6000fd5b50505050600060405180610120016040528060025481526020018781526020018881526020014281526020018581526020018673ffffffffffffffffffffffffffffffffffffffff1681526020013373ffffffffffffffffffffffffffffffffffffffff168152602001600073ffffffffffffffffffffffffffffffffffffffff1681526020016001600481111561078657610785611d56565b5b81525090506004819080600181540180825580915050600190039060005260206000209060080201600090919091909150600082015181600001556020820151816001015560408201518160020155606082015181600301556080820151816004015560a08201518160050160006101000a81548173ffffffffffffffffffffffffffffffffffffffff021916908373ffffffffffffffffffffffffffffffffffffffff16021790555060c08201518160060160006101000a81548173ffffffffffffffffffffffffffffffffffffffff021916908373ffffffffffffffffffffffffffffffffffffffff16021790555060e08201518160070160006101000a81548173ffffffffffffffffffffffffffffffffffffffff021916908373ffffffffffffffffffffffffffffffffffffffff1602179055506101008201518160070160146101000a81548160ff021916908360048111156108ea576108e9611d56565b5b02179055505050600560003373ffffffffffffffffffffffffffffffffffffffff1673ffffffffffffffffffffffffffffffffffffffff168152602001908152602001600020819080600181540180825580915050600190039060005260206000209060080201600090919091909150600082015181600001556020820151816001015560408201518160020155606082015181600301556080820151816004015560a08201518160050160006101000a81548173ffffffffffffffffffffffffffffffffffffffff021916908373ffffffffffffffffffffffffffffffffffffffff16021790555060c08201518160060160006101000a81548173ffffffffffffffffffffffffffffffffffffffff021916908373ffffffffffffffffffffffffffffffffffffffff16021790555060e08201518160070160006101000a81548173ffffffffffffffffffffffffffffffffffffffff021916908373ffffffffffffffffffffffffffffffffffffffff1602179055506101008201518160070160146101000a81548160ff02191690836004811115610a8d57610a8c611d56565b5b021790555050507ff22d97b4cb01b976b00b987146fcc46cad19bf21f1ef6a88e93dacc97dbdb3d06002548888888833604051610acf969594939291906121f2565b60405180910390a160026000815480929190610aea90612282565b919050555050505050505050565b610b006118fc565b6000600660003073ffffffffffffffffffffffffffffffffffffffff1673ffffffffffffffffffffffffffffffffffffffff168152602001908152602001600020549050610b4d8161197a565b50565b60016004811115610b6457610b63611d56565b5b60048281548110610b7857610b776122ca565b5b906000526020600020906008020160070160149054906101000a900460ff166004811115610ba957610ba8611d56565b5b14610be0576040517fed35e89200000000000000000000000000000000000000000000000000000000815260040160405180910390fd5b3460048281548110610bf557610bf46122ca565b5b90600052602060002090600802016002015411610c3e576040517f7185cbb900000000000000000000000000000000000000000000000000000000815260040160405180910390fd5b600073ffffffffffffffffffffffffffffffffffffffff168373ffffffffffffffffffffffffffffffffffffffff1614158015610ca85750600073ffffffffffffffffffffffffffffffffffffffff168473ffffffffffffffffffffffffffffffffffffffff1614155b15610cdf576040517fb171159000000000000000000000000000000000000000000000000000000000815260040160405180910390fd5b600083905060008173ffffffffffffffffffffffffffffffffffffffff16636352211e856040518263ffffffff1660e01b8152600401610d1f91906120c8565b602060405180830381865afa158015610d3c573d6000803e3d6000fd5b505050506040513d601f19601f82011682018060405250810190610d609190612165565b90503373ffffffffffffffffffffffffffffffffffffffff168173ffffffffffffffffffffffffffffffffffffffff1614610dc7576040517fdef1f6d800000000000000000000000000000000000000000000000000000000815260040160405180910390fd5b600060019050600160009054906101000a900473ffffffffffffffffffffffffffffffffffffffff1673ffffffffffffffffffffffffffffffffffffffff1663537a5c3d888888856040518563ffffffff1660e01b8152600401610e2e94939291906122f9565b600060405180830381600087803b158015610e4857600080fd5b505af1158015610e5c573d6000803e3d6000fd5b505050506000606460035434610e72919061233e565b610e7c91906123af565b90508034610e8a91906123e0565b6006600060048881548110610ea257610ea16122ca565b5b906000526020600020906008020160060160009054906101000a900473ffffffffffffffffffffffffffffffffffffffff1673ffffffffffffffffffffffffffffffffffffffff1673ffffffffffffffffffffffffffffffffffffffff1681526020019081526020016000206000828254610f1d9190612414565b9250508190555080600660003073ffffffffffffffffffffffffffffffffffffffff1673ffffffffffffffffffffffffffffffffffffffff1681526020019081526020016000206000828254610f739190612414565b92505081905550600260048681548110610f9057610f8f6122ca565b5b906000526020600020906008020160070160146101000a81548160ff02191690836004811115610fc357610fc2611d56565b5b02179055507ff78d98a848a4ae62ae2c07814b25e4bbb802299498dfb868d0ff2ebc72527fb985338a8a8a8760405161100196959493929190612448565b60405180910390a15050505050505050565b61101b6118fc565b6110256000611a5e565b565b6004818154811061103757600080fd5b90600052602060002090600802016000915090508060000154908060010154908060020154908060030154908060040154908060050160009054906101000a900473ffffffffffffffffffffffffffffffffffffffff16908060060160009054906101000a900473ffffffffffffffffffffffffffffffffffffffff16908060070160009054906101000a900473ffffffffffffffffffffffffffffffffffffffff16908060070160149054906101000a900460ff16905089565b60008060009054906101000a900473ffffffffffffffffffffffffffffffffffffffff16905090565b60606004805480602002602001604051908101604052809291908181526020016000905b828210156112e157838290600052602060002090600802016040518061012001604052908160008201548152602001600182015481526020016002820154815260200160038201548152602001600482015481526020016005820160009054906101000a900473ffffffffffffffffffffffffffffffffffffffff1673ffffffffffffffffffffffffffffffffffffffff1673ffffffffffffffffffffffffffffffffffffffff1681526020016006820160009054906101000a900473ffffffffffffffffffffffffffffffffffffffff1673ffffffffffffffffffffffffffffffffffffffff1673ffffffffffffffffffffffffffffffffffffffff1681526020016007820160009054906101000a900473ffffffffffffffffffffffffffffffffffffffff1673ffffffffffffffffffffffffffffffffffffffff1673ffffffffffffffffffffffffffffffffffffffff1681526020016007820160149054906101000a900460ff1660048111156112bc576112bb611d56565b5b60048111156112ce576112cd611d56565b5b815250508152602001906001019061113f565b50505050905090565b6000600160009054906101000a900473ffffffffffffffffffffffffffffffffffffffff1673ffffffffffffffffffffffffffffffffffffffff1663aba69cf8868686866040518563ffffffff1660e01b815260040161134d94939291906124a9565b602060405180830381865afa15801561136a573d6000803e3d6000fd5b505050506040513d601f19601f8201168201806040525081019061138e919061251a565b9050949350505050565b6000600660003373ffffffffffffffffffffffffffffffffffffffff1673ffffffffffffffffffffffffffffffffffffffff1681526020019081526020016000205490506113e58161197a565b50565b60025481565b6060600560008373ffffffffffffffffffffffffffffffffffffffff1673ffffffffffffffffffffffffffffffffffffffff168152602001908152602001600020805480602002602001604051908101604052809291908181526020016000905b828210156115f157838290600052602060002090600802016040518061012001604052908160008201548152602001600182015481526020016002820154815260200160038201548152602001600482015481526020016005820160009054906101000a900473ffffffffffffffffffffffffffffffffffffffff1673ffffffffffffffffffffffffffffffffffffffff1673ffffffffffffffffffffffffffffffffffffffff1681526020016006820160009054906101000a900473ffffffffffffffffffffffffffffffffffffffff1673ffffffffffffffffffffffffffffffffffffffff1673ffffffffffffffffffffffffffffffffffffffff1681526020016007820160009054906101000a900473ffffffffffffffffffffffffffffffffffffffff1673ffffffffffffffffffffffffffffffffffffffff1673ffffffffffffffffffffffffffffffffffffffff1681526020016007820160149054906101000a900460ff1660048111156115cc576115cb611d56565b5b60048111156115de576115dd611d56565b5b815250508152602001906001019061144f565b505050509050919050565b60008290508073ffffffffffffffffffffffffffffffffffffffff166342842e0e3033856040518463ffffffff1660e01b815260040161163e939291906121bb565b600060405180830381600087803b15801561165857600080fd5b505af115801561166c573d6000803e3d6000fd5b50505050505050565b60035481565b8060025411156116b7576040517f27ec605800000000000000000000000000000000000000000000000000000000815260040160405180910390fd5b3373ffffffffffffffffffffffffffffffffffffffff16600482815481106116e2576116e16122ca565b5b906000526020600020906008020160060160009054906101000a900473ffffffffffffffffffffffffffffffffffffffff1673ffffffffffffffffffffffffffffffffffffffff1614611761576040517fdef1f6d800000000000000000000000000000000000000000000000000000000815260040160405180910390fd5b6001600481111561177557611774611d56565b5b60048281548110611789576117886122ca565b5b906000526020600020906008020160070160149054906101000a900460ff1660048111156117ba576117b9611d56565b5b036117f1576040517f27ec605800000000000000000000000000000000000000000000000000000000815260040160405180910390fd5b600360048281548110611807576118066122ca565b5b906000526020600020906008020160070160146101000a81548160ff0219169083600481111561183a57611839611d56565b5b02179055507fc28b4aed030bfacc245c0501326e1beb8c0ef0d60e4edc21067fdeb52da2a7aa8160405161186e91906120c8565b60405180910390a150565b6118816118fc565b600073ffffffffffffffffffffffffffffffffffffffff168173ffffffffffffffffffffffffffffffffffffffff16036118f0576040517f08c379a00000000000000000000000000000000000000000000000000000000081526004016118e7906125ca565b60405180910390fd5b6118f981611a5e565b50565b611904611b22565b73ffffffffffffffffffffffffffffffffffffffff166119226110f2565b73ffffffffffffffffffffffffffffffffffffffff1614611978576040517f08c379a000000000000000000000000000000000000000000000000000000000815260040161196f90612636565b60405180910390fd5b565b479050600081036119b7576040517f7185cbb900000000000000000000000000000000000000000000000000000000815260040160405180910390fd5b60003373ffffffffffffffffffffffffffffffffffffffff16476040516119dd90612687565b60006040518083038185875af1925050503d8060008114611a1a576040519150601f19603f3d011682016040523d82523d6000602084013e611a1f565b606091505b5050905080611a5a576040517f90ada07c00000000000000000000000000000000000000000000000000000000815260040160405180910390fd5b5050565b60008060009054906101000a900473ffffffffffffffffffffffffffffffffffffffff169050816000806101000a81548173ffffffffffffffffffffffffffffffffffffffff021916908373ffffffffffffffffffffffffffffffffffffffff1602179055508173ffffffffffffffffffffffffffffffffffffffff168173ffffffffffffffffffffffffffffffffffffffff167f8be0079c531659141344cd1fd0a4f28419497f9722a3daafe3b4186f6b6457e060405160405180910390a35050565b600033905090565b600073ffffffffffffffffffffffffffffffffffffffff82169050919050565b6000819050919050565b6000611b6f611b6a611b6584611b2a565b611b4a565b611b2a565b9050919050565b6000611b8182611b54565b9050919050565b6000611b9382611b76565b9050919050565b611ba381611b88565b82525050565b6000602082019050611bbe6000830184611b9a565b92915050565b600080fd5b6000819050919050565b611bdc81611bc9565b8114611be757600080fd5b50565b600081359050611bf981611bd3565b92915050565b6000611c0a82611b2a565b9050919050565b611c1a81611bff565b8114611c2557600080fd5b50565b600081359050611c3781611c11565b92915050565b60008060008060808587031215611c5757611c56611bc4565b5b6000611c6587828801611bea565b9450506020611c7687828801611bea565b9350506040611c8787828801611c28565b9250506060611c9887828801611bea565b91505092959194509250565b60008060008060808587031215611cbe57611cbd611bc4565b5b6000611ccc87828801611c28565b9450506020611cdd87828801611c28565b9350506040611cee87828801611bea565b9250506060611cff87828801611bea565b91505092959194509250565b600060208284031215611d2157611d20611bc4565b5b6000611d2f84828501611bea565b91505092915050565b611d4181611bc9565b82525050565b611d5081611bff565b82525050565b7f4e487b7100000000000000000000000000000000000000000000000000000000600052602160045260246000fd5b60058110611d9657611d95611d56565b5b50565b6000819050611da782611d85565b919050565b6000611db782611d99565b9050919050565b611dc781611dac565b82525050565b600061012082019050611de3600083018c611d38565b611df0602083018b611d38565b611dfd604083018a611d38565b611e0a6060830189611d38565b611e176080830188611d38565b611e2460a0830187611d47565b611e3160c0830186611d47565b611e3e60e0830185611d47565b611e4c610100830184611dbe565b9a9950505050505050505050565b6000602082019050611e6f6000830184611d47565b92915050565b600081519050919050565b600082825260208201905092915050565b6000819050602082019050919050565b611eaa81611bc9565b82525050565b611eb981611bff565b82525050565b611ec881611dac565b82525050565b61012082016000820151611ee56000850182611ea1565b506020820151611ef86020850182611ea1565b506040820151611f0b6040850182611ea1565b506060820151611f1e6060850182611ea1565b506080820151611f316080850182611ea1565b5060a0820151611f4460a0850182611eb0565b5060c0820151611f5760c0850182611eb0565b5060e0820151611f6a60e0850182611eb0565b50610100820151611f7f610100850182611ebf565b50505050565b6000611f918383611ece565b6101208301905092915050565b6000602082019050919050565b6000611fb682611e75565b611fc08185611e80565b9350611fcb83611e91565b8060005b83811015611ffc578151611fe38882611f85565b9750611fee83611f9e565b925050600181019050611fcf565b5085935050505092915050565b600060208201905081810360008301526120238184611fab565b905092915050565b6000806000806080858703121561204557612044611bc4565b5b600061205387828801611c28565b945050602061206487828801611c28565b935050604061207587828801611c28565b925050606061208687828801611bea565b91505092959194509250565b60008115159050919050565b6120a781612092565b82525050565b60006020820190506120c2600083018461209e565b92915050565b60006020820190506120dd6000830184611d38565b92915050565b6000602082840312156120f9576120f8611bc4565b5b600061210784828501611c28565b91505092915050565b6000806040838503121561212757612126611bc4565b5b600061213585828601611c28565b925050602061214685828601611bea565b9150509250929050565b60008151905061215f81611c11565b92915050565b60006020828403121561217b5761217a611bc4565b5b600061218984828501612150565b91505092915050565b60006040820190506121a76000830185611d47565b6121b46020830184611d38565b9392505050565b60006060820190506121d06000830186611d47565b6121dd6020830185611d47565b6121ea6040830184611d38565b949350505050565b600060c0820190506122076000830189611d38565b6122146020830188611d38565b6122216040830187611d38565b61222e6060830186611d47565b61223b6080830185611d38565b61224860a0830184611d47565b979650505050505050565b7f4e487b7100000000000000000000000000000000000000000000000000000000600052601160045260246000fd5b600061228d82611bc9565b91507fffffffffffffffffffffffffffffffffffffffffffffffffffffffffffffffff82036122bf576122be612253565b5b600182019050919050565b7f4e487b7100000000000000000000000000000000000000000000000000000000600052603260045260246000fd5b600060808201905061230e6000830187611d47565b61231b6020830186611d47565b6123286040830185611d38565b612335606083018461209e565b95945050505050565b600061234982611bc9565b915061235483611bc9565b925082820261236281611bc9565b9150828204841483151761237957612378612253565b5b5092915050565b7f4e487b7100000000000000000000000000000000000000000000000000000000600052601260045260246000fd5b60006123ba82611bc9565b91506123c583611bc9565b9250826123d5576123d4612380565b5b828204905092915050565b60006123eb82611bc9565b91506123f683611bc9565b925082820390508181111561240e5761240d612253565b5b92915050565b600061241f82611bc9565b915061242a83611bc9565b925082820190508082111561244257612441612253565b5b92915050565b600060c08201905061245d6000830189611d38565b61246a6020830188611d47565b6124776040830187611d47565b6124846060830186611d47565b6124916080830185611d38565b61249e60a083018461209e565b979650505050505050565b60006080820190506124be6000830187611d47565b6124cb6020830186611d47565b6124d86040830185611d47565b6124e56060830184611d38565b95945050505050565b6124f781612092565b811461250257600080fd5b50565b600081519050612514816124ee565b92915050565b6000602082840312156125305761252f611bc4565b5b600061253e84828501612505565b91505092915050565b600082825260208201905092915050565b7f4f776e61626c653a206e6577206f776e657220697320746865207a65726f206160008201527f6464726573730000000000000000000000000000000000000000000000000000602082015250565b60006125b4602683612547565b91506125bf82612558565b604082019050919050565b600060208201905081810360008301526125e3816125a7565b9050919050565b7f4f776e61626c653a2063616c6c6572206973206e6f7420746865206f776e6572600082015250565b6000612620602083612547565b915061262b826125ea565b602082019050919050565b6000602082019050818103600083015261264f81612613565b9050919050565b600081905092915050565b50565b6000612671600083612656565b915061267c82612661565b600082019050919050565b600061269282612664565b915081905091905056fea2646970667358221220da952605e50a0e1ba043322f42f37b7e7fa5cf7703ffb929738f299580a217b664736f6c63430008110033",
  "devdoc": {
    "kind": "dev",
    "methods": {
      "owner()": {
        "details": "Returns the address of the current owner."
      },
      "renounceOwnership()": {
        "details": "Leaves the contract without owner. It will not be possible to call `onlyOwner` functions anymore. Can only be called by the current owner. NOTE: Renouncing ownership will leave the contract without an owner, thereby removing any functionality that is only available to the owner."
      },
      "transferOwnership(address)": {
        "details": "Transfers ownership of the contract to a new account (`newOwner`). Can only be called by the current owner."
      }
    },
    "version": 1
  },
  "userdoc": {
    "kind": "user",
    "methods": {},
    "version": 1
  },
  "storageLayout": {
    "storage": [
      {
        "astId": 7,
        "contract": "contracts/Cacao.sol:Cacao",
        "label": "_owner",
        "offset": 0,
        "slot": "0",
        "type": "t_address"
      },
      {
        "astId": 2679,
        "contract": "contracts/Cacao.sol:Cacao",
        "label": "delegationRegistry",
        "offset": 0,
        "slot": "1",
        "type": "t_contract(IDelegationRegistry)3501"
      },
      {
        "astId": 2681,
        "contract": "contracts/Cacao.sol:Cacao",
        "label": "offerCounter",
        "offset": 0,
        "slot": "2",
        "type": "t_uint256"
      },
      {
        "astId": 2683,
        "contract": "contracts/Cacao.sol:Cacao",
        "label": "fee",
        "offset": 0,
        "slot": "3",
        "type": "t_uint256"
      },
      {
        "astId": 2707,
        "contract": "contracts/Cacao.sol:Cacao",
        "label": "offers",
        "offset": 0,
        "slot": "4",
        "type": "t_array(t_struct(Offer)2703_storage)dyn_storage"
      },
      {
        "astId": 2713,
        "contract": "contracts/Cacao.sol:Cacao",
        "label": "offersByLender",
        "offset": 0,
        "slot": "5",
        "type": "t_mapping(t_address,t_array(t_struct(Offer)2703_storage)dyn_storage)"
      },
      {
        "astId": 2717,
        "contract": "contracts/Cacao.sol:Cacao",
        "label": "balances",
        "offset": 0,
        "slot": "6",
        "type": "t_mapping(t_address,t_uint256)"
      },
      {
        "astId": 2723,
        "contract": "contracts/Cacao.sol:Cacao",
        "label": "collectionToToken",
        "offset": 0,
        "slot": "7",
        "type": "t_mapping(t_address,t_mapping(t_uint256,t_bool))"
      }
    ],
    "types": {
      "t_address": {
        "encoding": "inplace",
        "label": "address",
        "numberOfBytes": "20"
      },
      "t_array(t_struct(Offer)2703_storage)dyn_storage": {
        "base": "t_struct(Offer)2703_storage",
        "encoding": "dynamic_array",
        "label": "struct Cacao.Offer[]",
        "numberOfBytes": "32"
      },
      "t_bool": {
        "encoding": "inplace",
        "label": "bool",
        "numberOfBytes": "1"
      },
      "t_contract(IDelegationRegistry)3501": {
        "encoding": "inplace",
        "label": "contract IDelegationRegistry",
        "numberOfBytes": "20"
      },
      "t_enum(OfferStatus)2676": {
        "encoding": "inplace",
        "label": "enum Cacao.OfferStatus",
        "numberOfBytes": "1"
      },
      "t_mapping(t_address,t_array(t_struct(Offer)2703_storage)dyn_storage)": {
        "encoding": "mapping",
        "key": "t_address",
        "label": "mapping(address => struct Cacao.Offer[])",
        "numberOfBytes": "32",
        "value": "t_array(t_struct(Offer)2703_storage)dyn_storage"
      },
      "t_mapping(t_address,t_mapping(t_uint256,t_bool))": {
        "encoding": "mapping",
        "key": "t_address",
        "label": "mapping(address => mapping(uint256 => bool))",
        "numberOfBytes": "32",
        "value": "t_mapping(t_uint256,t_bool)"
      },
      "t_mapping(t_address,t_uint256)": {
        "encoding": "mapping",
        "key": "t_address",
        "label": "mapping(address => uint256)",
        "numberOfBytes": "32",
        "value": "t_uint256"
      },
      "t_mapping(t_uint256,t_bool)": {
        "encoding": "mapping",
        "key": "t_uint256",
        "label": "mapping(uint256 => bool)",
        "numberOfBytes": "32",
        "value": "t_bool"
      },
      "t_struct(Offer)2703_storage": {
        "encoding": "inplace",
        "label": "struct Cacao.Offer",
        "members": [
          {
            "astId": 2685,
            "contract": "contracts/Cacao.sol:Cacao",
            "label": "offerId",
            "offset": 0,
            "slot": "0",
            "type": "t_uint256"
          },
          {
            "astId": 2687,
            "contract": "contracts/Cacao.sol:Cacao",
            "label": "tokenId",
            "offset": 0,
            "slot": "1",
            "type": "t_uint256"
          },
          {
            "astId": 2689,
            "contract": "contracts/Cacao.sol:Cacao",
            "label": "price",
            "offset": 0,
            "slot": "2",
            "type": "t_uint256"
          },
          {
            "astId": 2691,
            "contract": "contracts/Cacao.sol:Cacao",
            "label": "startTime",
            "offset": 0,
            "slot": "3",
            "type": "t_uint256"
          },
          {
            "astId": 2693,
            "contract": "contracts/Cacao.sol:Cacao",
            "label": "duration",
            "offset": 0,
            "slot": "4",
            "type": "t_uint256"
          },
          {
            "astId": 2695,
            "contract": "contracts/Cacao.sol:Cacao",
            "label": "collection",
            "offset": 0,
            "slot": "5",
            "type": "t_address"
          },
          {
            "astId": 2697,
            "contract": "contracts/Cacao.sol:Cacao",
            "label": "lender",
            "offset": 0,
            "slot": "6",
            "type": "t_address"
          },
          {
            "astId": 2699,
            "contract": "contracts/Cacao.sol:Cacao",
            "label": "borrower",
            "offset": 0,
            "slot": "7",
            "type": "t_address"
          },
          {
            "astId": 2702,
            "contract": "contracts/Cacao.sol:Cacao",
            "label": "status",
            "offset": 20,
            "slot": "7",
            "type": "t_enum(OfferStatus)2676"
          }
        ],
        "numberOfBytes": "256"
      },
      "t_uint256": {
        "encoding": "inplace",
        "label": "uint256",
        "numberOfBytes": "32"
      }
    }
  }
}